{
  "contractName": "Gheedorah",
  "abi": [
    {
      "inputs": [],
      "payable": false,
      "stateMutability": "nonpayable",
      "type": "constructor"
    },
    {
      "anonymous": false,
      "inputs": [
        {
          "indexed": true,
          "internalType": "string",
          "name": "storeId",
          "type": "string"
        },
        {
          "indexed": true,
          "internalType": "string",
          "name": "client",
          "type": "string"
        },
        {
          "indexed": false,
          "internalType": "uint256",
          "name": "credits",
          "type": "uint256"
        }
      ],
      "name": "Purchase",
      "type": "event"
    },
    {
      "anonymous": false,
      "inputs": [
        {
          "indexed": true,
          "internalType": "string",
          "name": "storeId",
          "type": "string"
        },
        {
          "indexed": true,
          "internalType": "string",
          "name": "client",
          "type": "string"
        },
        {
          "indexed": false,
          "internalType": "uint256",
          "name": "credits",
          "type": "uint256"
        }
      ],
      "name": "Redeem",
      "type": "event"
    },
    {
      "constant": true,
      "inputs": [
        {
          "internalType": "string",
          "name": "storeId",
          "type": "string"
        },
        {
          "internalType": "string",
          "name": "clientId",
          "type": "string"
        }
      ],
      "name": "balanceOf",
      "outputs": [
        {
          "internalType": "uint256",
          "name": "",
          "type": "uint256"
        }
      ],
      "payable": false,
      "stateMutability": "view",
      "type": "function"
    },
    {
      "constant": false,
      "inputs": [
        {
          "internalType": "string",
          "name": "storeId",
          "type": "string"
        },
        {
          "internalType": "string",
          "name": "clientId",
          "type": "string"
        },
        {
          "internalType": "uint256",
          "name": "credits",
          "type": "uint256"
        }
      ],
      "name": "credit",
      "outputs": [
        {
          "internalType": "bool",
          "name": "",
          "type": "bool"
        }
      ],
      "payable": false,
      "stateMutability": "nonpayable",
      "type": "function"
    },
    {
      "constant": false,
      "inputs": [
        {
          "internalType": "string",
          "name": "storeId",
          "type": "string"
        },
        {
          "internalType": "string",
          "name": "clientId",
          "type": "string"
        },
        {
          "internalType": "uint256",
          "name": "credits",
          "type": "uint256"
        }
      ],
      "name": "redeem",
      "outputs": [
        {
          "internalType": "bool",
          "name": "",
          "type": "bool"
        }
      ],
      "payable": false,
      "stateMutability": "nonpayable",
      "type": "function"
    }
  ],
  "bytecode": "0x608060405234801561001057600080fd5b50336000806101000a81548173ffffffffffffffffffffffffffffffffffffffff021916908373ffffffffffffffffffffffffffffffffffffffff160217905550610ce0806100606000396000f3fe608060405234801561001057600080fd5b50600436106100415760003560e01c806393cd7d9414610046578063db35b823146101ac578063e984c08714610320575b600080fd5b6101966004803603604081101561005c57600080fd5b810190808035906020019064010000000081111561007957600080fd5b82018360208201111561008b57600080fd5b803590602001918460018302840111640100000000831117156100ad57600080fd5b91908080601f016020809104026020016040519081016040528093929190818152602001838380828437600081840152601f19601f8201169050808301925050505050505091929192908035906020019064010000000081111561011057600080fd5b82018360208201111561012257600080fd5b8035906020019184600183028401116401000000008311171561014457600080fd5b91908080601f016020809104026020016040519081016040528093929190818152602001838380828437600081840152601f19601f820116905080830192505050505050509192919290505050610494565b6040518082815260200191505060405180910390f35b610306600480360360608110156101c257600080fd5b81019080803590602001906401000000008111156101df57600080fd5b8201836020820111156101f157600080fd5b8035906020019184600183028401116401000000008311171561021357600080fd5b91908080601f016020809104026020016040519081016040528093929190818152602001838380828437600081840152601f19601f8201169050808301925050505050505091929192908035906020019064010000000081111561027657600080fd5b82018360208201111561028857600080fd5b803590602001918460018302840111640100000000831117156102aa57600080fd5b91908080601f016020809104026020016040519081016040528093929190818152602001838380828437600081840152601f19601f8201169050808301925050505050505091929192908035906020019092919050505061056f565b604051808215151515815260200191505060405180910390f35b61047a6004803603606081101561033657600080fd5b810190808035906020019064010000000081111561035357600080fd5b82018360208201111561036557600080fd5b8035906020019184600183028401116401000000008311171561038757600080fd5b91908080601f016020809104026020016040519081016040528093929190818152602001838380828437600081840152601f19601f820116905080830192505050505050509192919290803590602001906401000000008111156103ea57600080fd5b8201836020820111156103fc57600080fd5b8035906020019184600183028401116401000000008311171561041e57600080fd5b91908080601f016020809104026020016040519081016040528093929190818152602001838380828437600081840152601f19601f82011690508083019250505050505050919291929080359060200190929190505050610962565b604051808215151515815260200191505060405180910390f35b60006001836040518082805190602001908083835b602083106104cc57805182526020820191506020810190506020830392506104a9565b6001836020036101000a0380198251168184511680821785525050505050509050019150509081526020016040518091039020826040518082805190602001908083835b602083106105335780518252602082019150602081019050602083039250610510565b6001836020036101000a038019825116818451168082178552505050505050905001915050908152602001604051809103902054905092915050565b60008060009054906101000a900473ffffffffffffffffffffffffffffffffffffffff1673ffffffffffffffffffffffffffffffffffffffff163373ffffffffffffffffffffffffffffffffffffffff16146105ca57600080fd5b6001846040518082805190602001908083835b6020831061060057805182526020820191506020810190506020830392506105dd565b6001836020036101000a0380198251168184511680821785525050505050509050019150509081526020016040518091039020836040518082805190602001908083835b602083106106675780518252602082019150602081019050602083039250610644565b6001836020036101000a0380198251168184511680821785525050505050509050019150509081526020016040518091039020548211156106a757600080fd5b61078a826001866040518082805190602001908083835b602083106106e157805182526020820191506020810190506020830392506106be565b6001836020036101000a0380198251168184511680821785525050505050509050019150509081526020016040518091039020856040518082805190602001908083835b602083106107485780518252602082019150602081019050602083039250610725565b6001836020036101000a038019825116818451168082178552505050505050905001915050908152602001604051809103902054610c7890919063ffffffff16565b6001856040518082805190602001908083835b602083106107c0578051825260208201915060208101905060208303925061079d565b6001836020036101000a0380198251168184511680821785525050505050509050019150509081526020016040518091039020846040518082805190602001908083835b602083106108275780518252602082019150602081019050602083039250610804565b6001836020036101000a038019825116818451168082178552505050505050905001915050908152602001604051809103902081905550826040518082805190602001908083835b60208310610892578051825260208201915060208101905060208303925061086f565b6001836020036101000a0380198251168184511680821785525050505050509050019150506040518091039020846040518082805190602001908083835b602083106108f357805182526020820191506020810190506020830392506108d0565b6001836020036101000a03801982511681845116808217855250505050505090500191505060405180910390207fcc9cd5978325ffba6ead9037705a4d1b27169544a26343666633414295eee9c8846040518082815260200191505060405180910390a3600190509392505050565b60008060009054906101000a900473ffffffffffffffffffffffffffffffffffffffff1673ffffffffffffffffffffffffffffffffffffffff163373ffffffffffffffffffffffffffffffffffffffff16146109bd57600080fd5b610aa0826001866040518082805190602001908083835b602083106109f757805182526020820191506020810190506020830392506109d4565b6001836020036101000a0380198251168184511680821785525050505050509050019150509081526020016040518091039020856040518082805190602001908083835b60208310610a5e5780518252602082019150602081019050602083039250610a3b565b6001836020036101000a038019825116818451168082178552505050505050905001915050908152602001604051809103902054610c8f90919063ffffffff16565b6001856040518082805190602001908083835b60208310610ad65780518252602082019150602081019050602083039250610ab3565b6001836020036101000a0380198251168184511680821785525050505050509050019150509081526020016040518091039020846040518082805190602001908083835b60208310610b3d5780518252602082019150602081019050602083039250610b1a565b6001836020036101000a038019825116818451168082178552505050505050905001915050908152602001604051809103902081905550826040518082805190602001908083835b60208310610ba85780518252602082019150602081019050602083039250610b85565b6001836020036101000a0380198251168184511680821785525050505050509050019150506040518091039020846040518082805190602001908083835b60208310610c095780518252602082019150602081019050602083039250610be6565b6001836020036101000a03801982511681845116808217855250505050505090500191505060405180910390207f5444228fc4786cadbd67f3c670c9978f12fed7e024d74c14d9089a61d228636d846040518082815260200191505060405180910390a3600190509392505050565b600082821115610c8457fe5b818303905092915050565b600080828401905083811015610ca157fe5b809150509291505056fea265627a7a72315820c17e55fe93695a853e7ef82de975e147eab205dd0f25f20031ec1ae567365cc264736f6c63430005100032",
  "source": "pragma solidity ^0.5.0;\n\n\ncontract Gheedorah {\n\n  string constant name = \"Gheedorah\";\n  address owner_;\n\n  event Purchase(string indexed storeId, string indexed client, uint credits);\n  event Redeem(string indexed storeId, string indexed client, uint credits);\n\n  mapping(string => mapping (string => uint256)) balances;\n\n  using SafeMath for uint256;\n\n  constructor() public {\n    owner_ = msg.sender;\n  }\n\n  function balanceOf(string memory storeId, string memory clientId) public view returns (uint256) {\n    return balances[storeId][clientId];\n  }\n\n  function credit(string memory storeId, string memory clientId, uint256 credits) public returns (bool) {\n    require(msg.sender == owner_);\n    balances[storeId][clientId] = balances[storeId][clientId].add(credits);\n\n    emit Purchase(storeId, clientId, credits);\n    return true;\n  }\n\n  function redeem(string memory storeId, string memory clientId, uint256 credits) public returns (bool) {\n    require(msg.sender == owner_);\n    require(credits <= balances[storeId][clientId]);\n\n    balances[storeId][clientId] = balances[storeId][clientId].sub(credits);\n    emit Redeem(storeId, clientId, credits);\n    return true;\n  }\n}\n\nlibrary SafeMath {\n  function sub(uint256 a, uint256 b) internal pure returns (uint256) {\n    assert(b <= a);\n    return a - b;\n  }\n\n  function add(uint256 a, uint256 b) internal pure returns (uint256) {\n    uint256 c = a + b;\n    assert(c >= a);\n    return c;\n  }\n}\n",
  "sourcePath": "/Users/hgking/Desktop/Develop/rust-ethereum-study/truffle/contracts/Gheedorah.sol",
  "compiler": {
    "name": "solc",
    "version": "0.5.16+commit.9c3226ce.Emscripten.clang"
  },
  "schemaVersion": "3.4.1",
  "updatedAt": "2021-05-28T15:58:57.378Z",
  "networkType": "ethereum",
  "devdoc": {
    "methods": {}
  },
  "userdoc": {
    "methods": {}
  }
}